:10000000FF004C6174746963650069434563756200
:10001000653220323031342E30342E3235383130A2
:1000200000506172743A2069434534304C50314B72
:100030002D434D343900446174653A204175672081
:100040003720323031342031313A30343A3000FF09
:1000500036007EAA997E5100010592002062014B74
:1000600072009082000011000101000000000000F9
:100070000000000000000000000000000000000080
:1000800000000000000000000000000000800000F0
:100090000000000000000000000000000000000060
:1000A0000000000000000000000000000000000050
:1000B0000000000000000000000000000000000040
:1000C0000000000000000000000000000000000030
:1000D0000000000000000000000000000000000020
:1000E00040000000000000000000000000000000D0
:1000F0000000000000000000000000000000000000
:1001000000000000000000000000000000000000EF
:1001100000000000000000000000000000000000DF
:1001200000000000000000000000000000000000CF
:10013000000000800000010000000000000000003E
:1001400000000000000000000000000000000000AF
:10015000000000000000000000000000000000009F
:10016000300000000000000004000000000000104B
:10017000000000000000400000000010000000002F
:10018000000040000000000001000000000000002E
:10019000000000000000000000000000000000005F
:1001A000000000000000000000000000000000004F
:1001B000000000000000000000000004000000003B
:1001C00000001000000000000040000000001000CF
:1001D00000000000004000000000070300000000D5
:1001E000000000000000000000000000000000000F
:1001F00000000000000000000000000000000000FF
:1002000000000000000000000000000000000000EE
:1002100000000000000000000000000000000000DE
:1002200000000000000000000000000000000000CE
:1002300000000000000000000000000000000000BE
:1002400000000000000000000000000000000000AE
:10025000000000000000000000000000000000009E
:10026000000000000000000000000000000000008E
:10027000000000000000000000000000000000007E
:10028000000000000000000000000000000000006E
:10029000000000000000000000000000000000005E
:1002A000000000000000000004000000000000004A
:1002B000000000000000000000000000000000003E
:1002C00000000000000000000000000000000040EE
:1002D00000004000000000000000000000000000DE
:1002E000000000000000000000000000000000000E
:1002F00000000000000000000000000000000000FE
:100300000000000000000000000000001400400099
:1003100000000000000000000000000000000000DD
:1003200000000000000000000000000000000000CD
:100330000000000000000038000000004000000045
:1003400000000000000000000000000000000000AD
:100350000000000000000038000000000000E00085
:10036000000000000000000000000000000000008D
:10037000000000000000000000000000000000007D
:100380000200000000000008000000000000000063
:10039000000000000000000000000000000000005D
:1003A000000000000000000000003000000033C129
:1003B00000400000400000000000000000000000BD
:1003C000000A500800000006BC0001000000000008
:1003D00000000001000000003C101400003000008C
:1003E00000000000000000000003C05A00000000F0
:1003F0000003C00010000000000000000200000028
:100400000000000000C0000000000000000000002C
:10041000000000000000000008000030C080000064
:1004200000000000000000000000000000000000CC
:1004300000000000000000000000000000000000BC
:1004400000005000030C000000000000000000004D
:100450000000781000000000000000000000000014
:1004600000000000000001C0F004000000000000D7
:100470000000000000000000002000008F000000CD
:10048000000000000000000000000000000000006C
:10049000100F00000000000000000000000000003D
:1004A0000000000000000000000000E0000000006C
:1004B0000000000000000000030000000000000039
:1004C000000000000000000000000000000000002C
:1004D0000000000008000000000000000000000014
:1004E000000000000000000000000000000000000C
:1004F00000000000000000000000000000002000DC
:1005000000AF0408000000000000000680000000AA
:1005100000000000000000000000000000000000DB
:100520000000000000000000000010F0400000008B
:1005300000000000000000000000000000000000BB
:10054000000000000000000000100000000000009B
:10055000400000000000000000000000000000005B
:10056000000000000000000000000000000000008B
:100570000000020000000000000800000000000071
:10058000000000000000000000000000000000006B
:10059000000000000000000000000000000000005B
:1005A000000000000000000000000000000000004B
:1005B0000000000000000000000000000002002E0B
:1005C000DE1F00000000000000000000000000002E
:1005D000000000000000000000800000000000009B
:1005E0000000000000000000060FB15000000038BD
:1005F000005000000000E0000000EF0408000000D0
:100600000000000000000000000000000000000EDC
:10061000000001FEBC020000020000800000000893
:1006200000000010F040000000000000000000008A
:100630000000000000000000008003402E06400083
:10064000000000000000000000C0000000000000EA
:10065000000000000000000000000000000000009A
:10066000000000000061CE04520000000000000005
:100670000000040000000000000000000000000076
:100680000000000000000000000000000000002545
:1006900000E4000002000000A000000000000000D4
:1006A000000000000000000000000000000000004A
:1006B000000000000000000006CEA50000000000C1
:1006C000001000000000000000000000000000001A
:1006D000000000000000000000000000000000001A
:1006E0000003AF0550000000000000000000000003
:1006F00000000000000000000000000000000000FA
:1007000000000000000000000000147AFAA50000BC
:100710000020000000000000000000380000000081
:1007200000000000000000000000000000000000C9
:1007300000000003E2ED05500000000000180DBFAE
:10074000890400000000000000000000000000001C
:1007500000000000000000000000000000262ED86D
:10076000A5400000000000001B30D0000000000089
:100770000000000000000000000000000000000079
:1007800000000000000000460CC9A40000000000AA
:1007900010000000000000038000000000000000C6
:1007A0000000000000000000000000000000000049
:1007B00000285FC74000000000008000000000002B
:1007C0000000000000000000000000000000000029
:1007D000000000000000000000A1434EDC240000E7
:1007E00000100000000000004000000000000000B9
:1007F00000000000000000000000000000000000F9
:10080000000400042C0000000000020000000000B2
:1008100000080000000000000000000000000000D0
:100820000000000000000000000000800342800083
:10083000000000000000000000000000020637EE8B
:100840002400000000000000000001CF0400008F21
:1008500080F33890000000605B1100000000000091
:10086000000000000000040258C3410040000000E6
:100870000000003800F04000001009230D000000C7
:10088000043EB44000000000000000000000E00151
:1008900060400000000000000000E00000000000D8
:1008A000038008007E02800E000000CE02020000DD
:1008B0000000000000000008000028000000000008
:1008C00000000008000000000000200010C0802888
:1008D0000080000002002010000000000000000066
:1008E00000000800000000000000000000400000C0
:1008F0000000000000071877295080000002EC205B
:1009000022000000000000000000000000000000C5
:1009100000000000000004000000000000001000C3
:100920000F8195000000001F000000000200000081
:100930000000000008000027CE2400000000000096
:1009400000000000000000000801D2E9D0000020F3
:1009500061FA0000000000000000000000004034C8
:100960000069C3400000000000000000000000001B
:1009700000003087AA91440002402DC20000000010
:100980000000000000000000000000000000000067
:1009900000000000000000000000000300879558E0
:1009A0004000063ACC0000000020000000000000DB
:1009B0000000000000000000000000000000000037
:1009C0000000000000080142A9000000029D00A0F4
:1009D00000000000000003B8280200020000000030
:1009E000000000000000000040000000000005982A
:1009F0007E1404000000601E2000000000000700BC
:100A000000028010000C0000000000000000000048
:100A10000002000000000000000081400000000013
:100A20002CC1000000000000500738140200000034
:100A300000000000000000000000000000000000B6
:100A400000080F5F29508000146ACD0000000000EC
:100A500000090E040140100000000000000000002A
:100A60000000000000000000000000F08F81958071
:100A700000000035E4000000000000000002044413
:100A80004A0000400000000000000000400000009C
:100A900000000120001B9BB95004801C01FAF040AB
:100AA000000000000000F3908018400030000000BB
:100AB000000000000008000000000000210090ABD2
:100AC0006161008400000D055410000000000189E0
:100AD0007294000001C00CE0000000000000000063
:100AE0000000000000000000009B3D4000000001ED
:100AF0006A245080000000001E7815400000340178
:100B0000D880180000000000000000000000000075
:100B10000000090280040000020C934480000038A9
:100B20000080ADA3D400E0000004EF040800000042
:100B30000000E0000000CF0403800300033C100E1F
:100B400001F67C180A20000002000D007C28000835
:100B5000000000000F40000000000008000000102E
:100B6000F040200000B043C100801FC7D5005000F6
:100B700000000000F00D39780800020000000000BD
:100B800000000000004000078000000300058EFB0D
:100B9000BD4400402006DE0202000000800180B05B
:100BA0002A0002000C3C00000000000000000E00C3
:100BB0000000000000383851098280002000438482
:100BC000000000000200050181AAF00A0808000CDC
:100BD000E502080000000000000000000000000026
:100BE000039C1ABD4000002E001B580000000000AE
:100BF000200A701900104100002050000000000081
:100C000000000000000000000000F90581404000E5
:100C100001E014EA40000000000001A00000000014
:100C2000034000EA00100000000000000000000087
:100C3000000000018186C20400002E01FC0C4380EC
:100C4000002000000000000000000E2DD050000029
:100C500000000000000C0024000000000000DB3851
:100C600010000001400D004600000000007007BEAB
:100C700091000000064FEF1420000000000000A0CB
:100C800000000000000000007A9400000020387985
:100C90000800000000000009B2F9500000002460C4
:100CA0007040000000000000000000000000000094
:100CB00000904140000003C015E00000000000105B
:100CC000900000000000086034AA500000000000FE
:100CD000000008000000000000081C0000000000E8
:100CE0000E026A4002000000000F00000000000039
:100CF000002DD05520000000000000004000000042
:100D000000000091000000000000000F0000000043
:100D1000001000180DBA91004002602EDE25000080
:100D200000000000400000000000010003815EBDE3
:100D30004014002023EE5E020000028001009B7937
:100D4000500A000401EDC34000000000000A00004A
:100D500000000000282008F043D400A00044060F43
:100D6000D0000000010018012902000003E0379FB5
:100D7000D400000000000000006040000000215886
:100D80001B32B8D0008020235A5A000000202000D7
:100D90008077000220006C00FA7E480040000000CE
:100DA00002000020000000090211F5210D040002DC
:100DB000463F88000000003800000723C300E00021
:100DC00063800000000000000000E000001CC4344C
:100DD00007800780327C181E0A20035E000208008C
:100DE000060000000003D2180C00400000000000C4
:100DF0000000000800000178D3082000080FEEC9A9
:100E0000008001C3D600100000000000019523C33C
:100E1000000001C780000000000000000010020078
:100E200001EF000000058C1F2810100036614E00F5
:100E3000000000008000080803D212020200000037
:100E400000000000000002001C0000F0000800711B
:100E5000004281002003E3D500A000000100000053
:100E60000521550000016380000000000000000023
:100E700000006001A0322000000077A9500000208F
:100E8000047C5E02000800000000081550100016E7
:100E9000300000000000000000000000000003001F
:100EA0000000008B83C1000002439C02E0000000B0
:100EB0000002800000000002000005CF500000008A
:100EC00000000000080001EF00000003980000008F
:100ED000000200284C5541400000001500000000B1
:100EE0000000000040500000000000000000003C36
:100EF00010F000000008800000000001C40F05A0F1
:100F0000000000000000000000000002C636BE2401
:100F1000000000000000000000000C302000001E57
:100F2000571690400C0000585000000004000000CC
:100F300000000000002C0168C34000000000000019
:100F400000000000C300000000F9C2A9000003C2B5
:100F5000430500040000000018000000000000002D
:100F600025EF500000000000000000068002402035
:100F7000000009FFAA90000080380000000800006F
:100F800000000000000000400001C0500000000010
:100F90000000000000024018000000018F43C1451E
:100FA0000017C7C000000000001000000000000093
:100FB00040026036BE241000000000000000004027
:100FC00000000100070F00000000009439DC0A084F
:100FD0000000028000000000000A0034017DC340D0
:100FE000000000000002002C2000000028001080FB
:100FF000000000201000170000000000000001CDDC
:10100000FBD4000200002FEF5000000000000000A1
:101010000000000FF00028079E00000000009E0165
:101020007A0000000000000010D41400000034001A
:10103000F0A00000000000000000000000FF3001F0
:101040003809000000000880003EA80000000038B9
:101050000080186F8800E001E0578E340000000027
:101060000000200000000C3423800018D680080EF9
:10107000001E067A020200000200090953B440086B
:101080000002317C834000000000000A00000000E4
:10109000C30020000105E420008021636E000010E1
:1010A0000000000080E72860080002006ECF5000BA
:1010B000000000000000004000CF041000001E00EF
:1010C000000000001C385C5A00000000000110D035
:1010D0002BC000002C34C0A0000000000000000065
:1010E000000000F0000000000000000000002734B5
:1010F0000A0200000200001981E2F008000003E487
:10110000C18020000000000000000000000000106E
:10111000080F87029000003E006B3F0100000000B6
:101120000D087819001000007B40AF00000000009F
:101130000000000000000000000091FD40140000CD
:1011400003C3F4D2500000000000000FF695000029
:1011500002670D8BC030000000000000006000003E
:10116000000000000000000000008001590A00009B
:101170000020000000379950000004346064000033
:1011800000000000000000000000000000700000EF
:101190000000000000168010000000000039BDF6BD
:1011A000910000006616DE340000000000000A0016
:1011B0000000E5000010200056D49020000E22010F
:1011C0008131800000000918B33950000034017CDF
:1011D0008340000000000000400001D0A010020089
:1011E00000F9E6946000002014B420000000000222
:1011F00000096F8D0004000035FD140000000000A0
:10120000000000030000000000100016ABC02080AA
:101210008E385C5A000000000055003F50D000009E
:1012200000027BF040000000000000002C000000E5
:10123000000002000343D400040404140052000020
:10124000001000D815F691004000006DAA4400007F
:10125000000000000000000000000000000000008E
:101260000000000039EEF5410000020001889B39C2
:101270005008000022FBDA400000000000000000DF
:101280000000000000000000000000000004020F49
:10129000520000000000000FEC20000040E00CA510
:1012A000540000000000000002069ED25402080014
:1012B0000102BC10000004000CF04080000000009F
:1012C00000B7000000000200005548004000000088
:1012D00000000440682E51000000A043C10000023D
:1012E00040000F0000040038007017B00808E0004C
:1012F000000EB000000000000000E012000000003E
:1013000003800000023C10120000001CF0400000AE
:1013100002000088040080080014006C1000000027
:10132000000000080004000000002000000043C18D
:1013300000200010000F000000000000000771E90D
:10134000880003E71CA654204000000000000000B5
:1013500005A5A404000000033C1C002000000000C0
:1013600000000000000000F0095000000640206569
:1013700040000000000000000002E05540000000B6
:10138000E003C1200000000000000000020001D0C6
:101390000F6A9D000012E70000000000000000003E
:1013A00000020000000000010000033C18000600DD
:1013B0000000000000000000218FFB287000008664
:1013C00040000000000000000000003C00000000A1
:1013D0000000000043C10000000000000000000009
:1013E0000100300FEAA9000000603CB88000000056
:1013F0000000000001C07CEA540000010100000070
:1014000000000628000000000020000089583C125F
:10141000000000016B110000000000000000023419
:1014200050F050000000E0000000000002800000CA
:1014300000000000001801B828000065405EA550BB
:10144000000000000000000000000000000000009C
:1014500000000000003C01FD803000000000090990
:1014600008028000008220005500000000000000FB
:10147000000000000000000000000000000002C3A7
:101480001FC00094000000021189BB9500000006F7
:1014900045A300380000000000000200000000002A
:1014A00000000000000000009C00000000000000A0
:1014B00000098A97B010000000634000000000009F
:1014C00000000000142000000000000000000000E8
:1014D00000166000000000000010001197E44100B9
:1014E0004000C01D8040200000000000400000407F
:1014F00000000100000000000000000071CC660048
:1015000000000200030AFE2D501800000020040015
:1015100000000000000800003C0000002000000067
:1015200000000000000405D9300080000000001712
:101530002D410000000040000000000000000000FD
:1015400000029CCB8400000518000000000000642D
:101550006A0800080000000008B22890000200207D
:1015600000000000000000000000046F59D1C0001E
:101570000008000000000080030E90000800703C8E
:10158000008189316800E002029DE5F6000000005C
:101590000000E0C00015CB86038B801E0000000E0B
:1015A00040207C4DF7004000020001103C02800802
:1015B00000042BD0FF400000000000080004026C73
:1015C000E2C0200011000000008203C2969FF000DC
:1015D000A5000000800BE0B10800000037B000005B
:1015E00000000000000000030000000010000000E8
:1015F00000000200342A6A0F0043F000000100B42A
:101600000F3000001C02DE20094000000000000036
:101610000000000000028000000000001003E6E669
:1016200000A000003100001805B66C000002074160
:1016300083002000000000004408000000000100BA
:1016400000013379500000200278080000040000F7
:10165000000A7796C000001C7C0030000280000069
:101660000008810000000000200000A9712B00008C
:10167000004025E0000014000000001FE305080002
:1016800000001D8C34200000000000000066800077
:1016900000000008001FAC1000000E02DAD0420A61
:1016A000300000000A1C10900000003AD0E34840CF
:1016B0000000000000000000000000000030E3B760
:1016C000C7000000C0240C440000700000398138BD
:1016D000280000C0064695800000000000000002BF
:1016E00010000000000007817F62000000066559BD
:1016F000834000000000008CF800020000003BFF67
:1017000000000000000000000014000000000000C5
:1017100050A9F8440000140225C46400000400002D
:101720001013EBF4480001C02EA26430000000004A
:10173000000042031DEF040000000096A00280009C
:1017400020024B934008028000078FBC3FC020005E
:101750001E3B6025410000000000000004247FD1F2
:10176000C00000000340042200034027D8140014E6
:101770000010008087B685044001C26080500000E0
:10178000000000004000004400000100281A000092
:10179000000400000159834002000200011C7F7810
:1017A0009008000263D00A0000000000000400005E
:1017B00023C05A001004100000000080000027D44D
:1017C00064000000110101010000000000000000A1
:1017D00000000000000000001000000000040000F5
:1017E0000000000000000000000000800000000079
:1017F00000000000000000000000000000000000E9
:1018000000000000000000000000000000000000D8
:10181000000000000000D0000000000000000000F8
:1018200000000000000000000000001000000000A8
:101830000400000000000000000000000000400064
:101840000000000000000000000000000000000098
:101850000000000000000000000000000000000088
:101860000000000000000000000000000000000078
:101870000000000000000000000000000000200048
:1018800000000008000000800000000000000000D0
:1018900000800000030000000000000000000000C5
:1018A0000000000000000000000000100000000028
:1018B00004000000000000000000000000003000F4
:1018C0000000000000000400000000000010000004
:1018D00000200000400008000000000000000000A0
:1018E00040000000000001000000000000000000B7
:1018F00000000000000000000000000000000000E8
:1019000000000000000000000000000000000000D7
:1019100000000000000000000004000000000000C3
:101920001000000000000000000000002000000087
:101930000000004000000000000100000000000066
:101940000000000000000000000000000000000097
:101950000000000000000000000000000000000087
:101960000000000000000000000000000000000077
:101970000000000000000000000000000000B000B7
:101980004000000000000000000000000000000017
:101990000000000000000000000000000000000047
:1019A000000000000000400D0008000000000000E2
:1019B0000000000000000004000000000000000023
:1019C0000000000000000000000000000000000017
:1019D0000000000000000000000000000000000007
:1019E00000000000000000000000000000000000F7
:1019F00000000000000000000040000000000000A7
:101A000000000000000000000000000000000000D6
:101A10000000000000000000000000000000014085
:101A20004000040000100000000000000000000062
:101A30000000810000000000000000000000000025
:101A40000000000000000000000000008000000016
:101A5000000000000000000000000058000000002E
:101A60000000000000000000000000000000000076
:101A70000000000000000000000000000000000066
:101A80000000000000000000000000000000000056
:101A90000000000000000000000000000000000046
:101AA0000000000000000000000000000000000036
:101AB0000000000000000000000000000000000026
:101AC00000000000000000000001C0000000000055
:101AD0000000000000000000000000000000000006
:101AE00000000000000000000000000000000000F6
:101AF00000000000200000000000000000000000C6
:101B000000000000000000000000000000000000D5
:101B100000000000000000000000000000000000C5
:101B20000000000080300000000000000000000005
:101B300000000000000000000000000000000000A5
:101B4000000000000000000000000000001009027A
:101B500094000000000000000000020000000000EF
:101B60000000000000000000000000000000000075
:101B7000000000000028000000000000000000003D
:101B80000000000000000000000000000000000055
:101B90000000000000000000000000000000010044
:101BA0000000000000000000000000000000000035
:101BB0000000000000000000000000000000000025
:101BC0000000000000000000000000000000000015
:101BD00000000000000000200000000000000000E5
:101BE00000000000000000000000000000000000F5
:101BF00000000000000000000000000000000000E5
:101C000000000000000000000000000000000000D4
:101C100000000000000000000000000000000000C4
:101C200000000000000000000000000000000000B4
:101C300000000000000000000000000000000000A4
:101C40000000000000000000000000000000000094
:101C50000000000000000000000000000000000084
:101C60000000000000000000000000000000000074
:101C70000000000000000000000000000000000064
:101C80000000000000000000000000000000000054
:101C90000000000000000000000000000000000044
:101CA0000000000000000000000000000000000034
:101CB000000000000000000000000000003C0500E3
:101CC0000000030000000000000000000000000011
:101CD0000000000000000000000000000000000004
:101CE000000000000000000EA000000080000000C6
:101CF00000000000000000000000000000000000E4
:101D000000000000000000000000000000000000D3
:101D100000000000000000000000000000000000C3
:101D200000000000000000000000000000000000B3
:101D300000000000000000000000000000000000A3
:101D40000000000000000000000000000000000093
:101D50000000000000000000000000000000000083
:101D6000000004000000000000000000000000006F
:101D70000000000000000000000000000000000063
:101D8000000000000000000000000000380000001B
:101D90000000000000000000000000000000000043
:101DA0000000000000000000000000000000000033
:101DB0000000000000000000000000000000000023
:101DC0000000000000000000000000000000000013
:101DD0000000000000000000000000000000000003
:101DE00000000000000000000000000000000000F3
:101DF00000000200000000000000000000000000E1
:101E000000000000000000000000000000000000D2
:101E100000000000000000000000000000000000C2
:101E200000000000000000000000000000000000B2
:101E300000000000000000000000000000000000A2
:101E40000000000000000000000000000000000092
:101E5000000000000000000000000800000000007A
:101E600000000000000000800000000000000020D2
:101E70000000000000000000000000000000000062
:101E80000000000100000000000000000000000051
:101E9000040000000000000000000000000000003E
:101EA0000000000000000000000000000000033DF2
:101EB0000A00100000000000000000000000000008
:101EC0000000000000000000000000000000000012
:101ED0000000000000000000040A500000000000A4
:101EE00000000000000000000000000000000000F2
:101EF00000000000000000000000000000000000E2
:101F00000000000000000000000000000040000091
:101F100000000000000000000000000000000000C1
:101F200000000000000000000000000000000000B1
:101F30000000000000000800000000000000000099
:101F4000000000000000000000000000000400008D
:101F50000000000000000000000000000000000081
:101F60000000000000000000000000000000000071
:101F70000000000000000000000000000000000061
:101F80000000000000000000000000000000000051
:101F90000000000000000000000000000000000041
:101FA000000000000000000000000002000B000024
:101FB0000000000000000000000000000000000021
:101FC0000000000000000000000000000000000011
:101FD00000000000001000000000000000000000F1
:101FE00000000000000000000000000000000000F1
:101FF00000000000000000000000000000000000E1
:1020000001000000000000000000000000000000CF
:1020100000000000000000000000000000000000C0
:102020000000000000000000000098000000000018
:1020300000000000000000000000000000000000A0
:102040000000000000000000000000000000000090
:102050000000000B00000000000000000000000075
:102060000000000000000000000000000000000070
:102070000000000000000000000000000000000060
:10208000000000000000000000000200000000004E
:102090000000000000000000000000000000000040
:1020A0000000000000000000000000000000000030
:1020B0000000000000000000000000000000000020
:1020C0000000000000000000000000000000000010
:1020D0000000000000000000000000000000000000
:1020E00000000000000000000000000000000000F0
:1020F00000000000000000000000009002900000BE
:102100000003490000000020000000000000000063
:1021100000000000000000000000000000000000BF
:102120000000000003A1410000000004A0800000A6
:10213000000000000000000000000000000000009F
:10214000000000000000000000000000000838014E
:102150005000000028000000000000000000000007
:10216000000000000000000000000000000000006F
:10217000000000000000001D21430000016040003D
:10218000000000000000000000000000000000004F
:10219000000000000000000000000000000200003D
:1021A000007001500000000000000000000000006E
:1021B000000000000000000000000000000000001F
:1021C000000000000000003800000F214300000064
:1021D00000000000000000000000000000000000FF
:1021E00000000000000000000000000000000000EF
:1021F0000000000030015100001400000000000049
:1022000000000000000000000000000000000000CE
:10221000000000000000000000000000018F2143CA
:102220000000020680000000202C000000000000DA
:1022300000000000000000000000000000E00000BE
:1022400000000002800100980150000024400000BE
:102250000005400000000000000000000000000039
:102260000000000000000C001E00000000100081B3
:102270008FA1430000020600000000800000000063
:10228000000000000000000000000000000000004E
:1022900000000000000000000100D8015000000014
:1022A000000000000000000000000000000000002E
:1022B000000000000000000000000000000000001E
:1022C0000000980DA14300000006000000000C0073
:1022D00000000000000000000000000000000000FE
:1022E00000000000000000000000100000900150FD
:1022F0000000022400000004800000000000000034
:1023000000000000000000000000000000000000CD
:102310000000000200040DA1430000006040000026
:1023200000222E000000000000000000000000005D
:10233000000000000000000003400000000000005A
:10234000D00150000000000000000160000000000B
:10235000000000000000000000000000000000007D
:102360000000040000000000000FA143000000076F
:10237000800000000080000000000000000000005D
:10238000000000000000000000000000000000004D
:10239000000008980150000000034D0000000310E9
:1023A000000000000000000000000000000000002D
:1023B000000000000000000000000018F9A14380A8
:1023C00000000004A800000B000000000000000056
:1023D000000000000000000000000000400040007D
:1023E000000000800008D801500000002800000014
:1023F00008300000000000000000000000000000A5
:1024000000000000000C0020000000000000001D83
:10241000214300000162C000000000000000000035
:10242000000000000000000000000000000000802C
:1024300000000000000240000F9001500000000268
:102440007000080000000000000000000000000014
:1024500000000000000000000E0000000000003D31
:102460000000FF2143000000001CA80030802C0069
:102470000000000000000000000000000004000058
:102480000000000000000554C0000000D001510011
:10249000001442CF0000080000000000000000000F
:1024A00000000000000000000000000000000148E3
:1024B00055490000000F214300000202AFF8000060
:1024C000000008000000000000A000000000000064
:1024D000000000000060004000C00002800100F821
:1024E0000150020034400000000000000000000025
:1024F00000000400000000000000000000000400D4
:10250000200000008010008187A1430000000280AD
:1025100000000000000800000000000000000000B3
:102520000000000000000000000042000000000069
:10253000010DB80150000000000000000000000084
:10254000000000000000000000000000000000008B
:102550000000002604C0008000009815A143000080
:10256000000000000000000000000000000000006B
:10257000000036A584000000000000000000340FB9
:102580005580000000F001500000026EC0A5000060
:10259000000000000000000000000003796441001A
:1025A00000000000000000016805C000000005A157
:1025B0004300000146A005A008000208000000003A
:1025C000000000000000000000000000000000000B
:1025D00020240F540000000DB0015000000002CF75
:1025E00000010000000000000000000000000000EA
:1025F0000000000000000000000E01E805E00000FF
:102600000017A143000000002FF0800000800000B0
:1026100000000000000001428000000000000000F7
:1026200000000000360F5480000008F80150000040
:10263000000349000000002000000000000000002E
:1026400000380000000000000000000006014805FE
:10265000C00400181521430000000004A800000079
:102660000008000000000000200000000000000042
:1026700000000000000002A60F5408800008B80106
:1026800050020000280000000000000000000000D0
:10269000000000000000000000000000000000003A
:1026A00061C805C0000001952143000001604000A1
:1026B00000000000000000000000008002C00000D8
:1026C000000000000000008003C0340F540200002E
:1026D00000F00150000000000000000000000000B9
:1026E000000000000E0020000000000000000000BC
:1026F0000E000001C805C03A000007214300000099
:1027000000000000000000000000000000000000C9
:1027100000000000000000000000200002A40F5490
:1027200020838000B0015100401400000000000030
:102730000000000000000000000000000000000099
:1027400000000000000001C805C000000007214390
:10275000004802068000000023402000000043C122
:102760000080000015A62600200000000000E00008
:1027700000000002000100B801500000000000004D
:1027800000097381000000033C100400000019914F
:102790004000000000000000000000000010008168
:1027A0008FA1430000000000002020000000000175
:1027B0000000000002A003400050000000000000E4
:1027C00000004036D00080000110F80150000000E9
:1027D0000040080000000000079E000000004000CC
:1027E000046A0500003800000000002002ED080027
:1027F000000099A5A14300000000200000000F2860
:10280000000000000000000803400000000000007D
:1028100000000000000780000000000000B0015030
:102820000000000000000008800000001800000008
:102830000006200000000000000000000000003C36
:10284000000000000000EDA14300000000000000B7
:102850000022404000108301690000000354C24080
:102860000000000000000001C0000F000000000098
:10287000F0015000000001405A00014280000001B8
:1028800000295000040E0559080000000000000057
:10289000001E001AF00080000007A14300000000A5
:1028A000200A508000400000000003C100000140E9
:1028B0000000000000000000000000E40000000034
:1028C000000008B801500000020010000000038062
:1028D00000000003BC1200003400000000000000F3
:1028E0000000000014780000000000181D214300C3
:1028F00040814601A100000B003000000043C100F0
:10290000000040069DA4000000000000000362C417
:1029100001A200000008F8015000000000000000C3
:10292000086003000000023C1040001403CCA548DE
:102930000000000000000014004E0002000001959D
:1029400021430000000000000000002820000000DB
:102950000000008001638D8E5480000000000000A4
:10296000034024B00002000000B001500000040049
:102970000000000000038000000000000E001405AD
:102980006CA5400000000000000040006C80003892
:1029900000000F2143000000000000000080400004
:1029A00000000043C100000002000000000400001D
:1029B00000000A026414A40000000000F00150802E
:1029C000000000000000080280000018073C120010
:1029D00000060400000000000000000000262A0A93
:1029E00080000000000721430000000000000000FC
:1029F0000000000010078305000000000000000038
:102A000000000000000E00020000000300408000F3
:102A1000000000003440000000000003000818FE21
:102A200030D4800000700000000000000000002092
:102A300000040000003000380000000000000280A8
:102A40000000000000000010000140000000000035
:102A50000000000000000000000004000C30000036
:102A600000000000000000022C0000000000000038
:102A700008003A9400000000000000000000000080
:102A8000000000006800C302000018A00000000061
:102A9000014000000000000000000009608100000B
:102AA00000040E9E20004010000000000000010302
:102AB00000002010000000000000022C00000000B8
:102AC0000000000180B340100006046BEBA100047D
:102AD00002000000000000000E30020102000000B1
:102AE0000888000140000000000002000070F003B0
:102AF000C1000000002603000000000000000000EC
:102B000000010F000000000E00000000043440002F
:102B1000000000000000080102BC1000000000FCE2
:102B2000B5020000000000000000001EF000800060
:102B300000100008080014028000000000000000DF
:102B400000F0000000000000340050000000000011
:102B50000000000000000000000000040000000071
:102B600000000000000060200000000000000000E5
:102B700014001A0A004000000000000000000000DD
:102B8000000000000038400000600000000000006D
:102B9000000000D00D8095000000228000000000A1
:102BA0000000000000000000000000000100000024
:102BB0000000000002CF000080000000081E5A8FB5
:102BC000D0A0000E00000000000000000000000087
:102BD00000000000000080000000000000002FF84E
:102BE000000000000000F90778F000100004050064
:102BF00050802800000000000000000000020000DB
:102C000000543D5200000003CD0000000003800B83
:102C10000C124F8001000028080A0000000000008C
:102C2000000000000000003800000732950000009E
:102C3000001CC8008000000000708B704100000084
:102C400022C00000000000000000000000000000A2
:102C500000000000B3BAD000000000000000000037
:102C6000000008011E001000001400000000000019
:102C700000000000000000000000000000002B5DCC
:102C800020000000000000002224000000000000DE
:102C9000008060C0000F04800000000000400003BE
:102CA000C0000001000110040280080000000000C4
:102CB00000094040000000000000040020000CF06B
:102CC0004000000000000400000000000010009917
:102CD0008370280440800000000000000000000015
:102CE00000030C00000002010F048000000000003F
:102CF00000000000000000000710B3F030000000EA
:102D0000000000000000000000000030C08000064D
:102D1000041CF040000000000000008000000000E3
:102D2000000001E97BF100000000000000000B0042
:102D300000000000030C00000002010F04800000EE
:102D400000000000004280000000000B9854167044
:102D5000000000240000000840000000000030C017
:102D6000800000641CF040000000000000003604F9
:102D700000000000009197BAA50400000040000088
:102D800000602C00000000030C000A02400000005C
:102D90000000000000000000000E9D1C0000090063
:102DA000F838B0000000006D08400140400000000D
:102DB0000030C08040200000000000000000000043
:102DC000000003E98B410000800DFBD508000000E6
:102DD000249B5400000000005000030C0000000081
:102DE000000000000000000000800000009F0002C2
:102DF00000098F3000000000142820F000000000BF
:102E00000008000030C08000003800000000000012
:102E100000000400000148F080100098197020089C
:102E2000000142968F0800300000000000030C00F3
:102E30004000001C05A40000000000000004000287
:102E40008F00000021000428000000000020F00096
:102E50000300000000000030C08400000000A54016
:102E600000000000000000140048F080000081878E
:102E70006A8000000000168F08008020000000001B
:102E8000030C00806000010F0400000000000080BF
:102E90000042829F00021001005784400800040095
:102EA00000F0000000480000000030C08E06000066
:102EB0001AF04000000000000E000000E8F0803A28
:102EC00000000DA62000E00200168F0800002E0072
:102ED00000000003C000000002B6E0008004000013
:102EE000000000014000000020000F09D67CF01017
:102EF00000000000000200404000000006BC00008E
:102F0000000003DE0800000000000000000038E0C0
:102F100000800000D807728D0000000296000800B3
:102F2000000011020101000000000000000020006C
:102F30000000000000000000010010000000000080
:102F40000000000000000000000000000000000081
:102F50000000000000000000000000000000000071
:102F600000008000000000000000000000000000E1
:102F70000000000000000000000000000000000051
:102F80000020000000000000800000000020000081
:102F90000000000000000000000000000000000031
:102FA0000000000000000000000000000000000021
:102FB0000000000000000000000000000000000011
:102FC0000000000000000000000000000000000001
:102FD00002001A0010000000000000000C000000B9
:102FE00010000000000000000000000000000000D1
:102FF00000000000000000000000300100000000A0
:10300000000000000000C000000000000000000000
:1030100000000000000000000000000000000000B0
:103020000000000000800000000000200000000000
:1030300000000000000000200000000000008000F0
:1030400000000000000280000000000000000000FE
:10305000000000000000000400000000000000006C
:10306000000000000000000000000000000000045C
:1030700000000000000000041A0000000000000032
:103080000000000C00000000000020000000000014
:1030900000800000000000030000000000000000AD
:1030A0000000000000000000000000000000000020
:1030B0000000000000000000000000000000000010
:1030C00000000000000000000003000000000000FD
:1030D00000000000000000000000000000000000F0
:1030E00000000000000000000004000000000000DC
:1030F00000000010000002000000000000000000BE
:1031000000000000000000000000000000000000BF
:10311000000000800000000000000000000000002F
:10312000000000000000000000000000000000009F
:10313000000000000000000000000000000000008F
:10314000000000000000000000020000000000007D
:10315000000000000002000000000000000000006D
:10316000000000000000000000000000000000005F
:10317000080000000000002000000000080000001F
:10318000000000000000000000000000000000003F
:10319000000000000000000000002000010000000E
:1031A000000000000000000000000000000000001F
:1031B000000000000000000000000000000000000F
:1031C00000000000000000000000000000000000FF
:1031D00000000000000000000000000000000000EF
:1031E00000000000000000000000000000000000DF
:1031F00000000000000000000000000800000000C7
:1032000000000000000000000000000000000000BE
:1032100000000000000000000000000000000000AE
:103220000000000000000000000580000000000019
:10323000000000000000000000000000000000008E
:10324000000000000000000000000000000000007E
:103250000000000800000000000000000000000066
:10326000000000000000000000000000000000005E
:10327000000000000000000000000000000000004E
:10328000000000000000000000000000000000003E
:10329000000000000000000000000000000000002E
:1032A000000000000000000000000000000000001E
:1032B000000000000000000002000000000000000C
:1032C00000000000000000000000000000000000FE
:1032D00001000000000000000000000000000000ED
:1032E00000000000000000000000000000000000DE
:1032F000000000000000000000009000000000003E
:1033000000000000000000000000000000000000BD
:1033100000000000000000000000000000000000AD
:10332000000000000000000000000000000000009D
:10333000000000000020000000000000000000006D
:10334000000000000000000000000000000000007D
:10335000000000000000000000000000000000006D
:10336000000000000000000000000000000000005D
:10337000000000000000000000000000000000004D
:1033800000000000000000000000000000005000ED
:10339000000000000000000000000000000000002D
:1033A000000000000000000000000000000000001D
:1033B000000000000000000000000000000000000D
:1033C0000000000000000157800000000000000025
:1033D00000000000000000000000000000000000ED
:1033E00000000000000000000000000000000000DD
:1033F00014100000000000000000000000000000A9
:1034000000000000000000000000000000000000BC
:1034100000000000000000000000000000000000AC
:10342000000000000000000000000000000000009C
:10343000000000000000000000000000000000008C
:10344000000000000000000000000000000000007C
:10345000000000000000000000000000000000006C
:10346000000000000000000000000000000000005C
:1034700000000000000000000000456C500000004B
:1034800000000000000000008000000000000000BC
:10349000000000000000000000000000000000002C
:1034A000000020221DB08B00000000000000000082
:1034B000000000000000000000000000000000000C
:1034C000000000000000000000000070083DD8016E
:1034D000D001C0000000000000000000000000005B
:1034E00000000000000000000000000000000000DC
:1034F000000000000100AA80C01E000400000000BF
:1035000000000000000000000000000000000000BB
:1035100000000000000000000000000600000000A5
:103520000000188000000000000000000000000003
:10353000000000000000000000000000000000008B
:10354000000000000000000000000000100000006B
:103550000200000000000000000000000000000069
:103560000000000000000000000000025553800031
:1035700080000A80EB8010000000000000000000C6
:10358000000000000000000000000000000000003B
:103590000000000000A0F0B800000000ABC38108EC
:1035A000000000000000000000000000000000001B
:1035B000000000000000000000000000000000000B
:1035C00000000000000A3B7B58A000000020000023
:1035D00000000000000000000000000000000000EB
:1035E0000000000000000000000000000000008358
:1035F000CDF01900000000000000000000000000F5
:1036000000000000000000000000000000000000BA
:1036100000000000000000000000000000000000AA
:10362000000000000000000000000000000000009A
:10363000000000000000000000000000000000008A
:10364000000000000D0A0000000000000000000063
:10365000000000000000000000000000000000006A
:1036600000000000000000003C00020AB45A018083
:10367000000000000000000000000000000000004A
:10368000000000000000000000000000000000003A
:103690000003400000A857C0000000000000000028
:1036A000000000000000000000000000000000001A
:1036B00000000000000000000000000000220A3BA3
:1036C000E81800008000000000000000000000007A
:1036D00000000000000000000000000000000000EA
:1036E000000000000000010283F6900000040000CA
:1036F00000000000000000000000000000000000CA
:1037000000000000000000000000000000160000A3
:103710000000D34858A08400000000000000000012
:103720000000000000000000000000080000000091
:1037300000000000000000400000000F0C9D100081
:1037400080000000000000000000000000000000F9
:103750000000000000000000000000001C0000004D
:103760000000000000015E801001C00000000000A9
:103770000000000000000000000000000000000049
:103780000000000000004000000002C000020435FC
:10379000AD0A00040000000000000000000000006E
:1037A0000000000000000000000000000001000018
:1037B0000000000000000000000070A008000000F1
:1037C00000000000000000000000000000000000F9
:1037D00000000000000000F00000000000000000F9
:1037E0000000000D9A0040000200000000000000F0
:1037F00000000000000000000000000000000000C9
:103800000001000000FA000400000BD4FE000200DA
:1038100000000000000000020000000000000000A6
:10382000000000000000000000000000000B85FC0C
:10383000038000008280D000000000000000000033
:103840000000000000000000000000000000000078
:10385000000000000000000072400000000294DD43
:103860001800000000200000000000000000000020
:103870000000000000000000000000000000000048
:103880000A0060000000042A82D00000000000004E
:103890000000000000000000000000000000000028
:1038A000000000000000001C0000000000000000FC
:1038B0000B1E788180000000000000000000000066
:1038C00000000000000000000000000000000000F8
:1038D00000000000000000000000B08DE10A0000C0
:1038E00000000000000000000000000000000000D8
:1038F000000000000040BC140000000000000000B8
:103900000000000A944F00E00000000000000000EA
:103910000000000000000000000000000000042B78
:10392000C0000000000000000242C000009676D0F7
:10393000190000000000000000000000000000006E
:10394000000000000000000000000000000008006F
:1039500000000C000000011FC070F000800000009B
:103960000000000000000000000000000000000057
:1039700000000000000000004000000020000000E7
:1039800022DCD08E000400040000000000000000D3
:10399000000000000000000000000000042EDF8E88
:1039A00000000008326060000800116E01B00000E5
:1039B0000280000000000000000000000000000085
:1039C000000000000220007D51000000000920409E
:1039D0000000640416800D0000008000000000005C
:1039E00000000000000000000000000000000000D7
:1039F000000018001C02053F8004307002A87CD82B
:103A00000801C000000000000000000000000000ED
:103A10000000000000000000000000D0B0006020A6
:103A200000B2438001002A800F0E40040000000015
:103A300007F000000000000000000000000000008F
:103A400000000437901A000002C0B300000000021A
:103A5000A96E19800000000008500F8000000000CF
:103A6000000000000000000000000010036D0000D6
:103A70008108AC27BC000004002A820080001000EE
:103A800070000000000000000000000020000000A6
:103A900000002840000427DB001C80005076000056
:103AA00000010001480010000008000000000000B4
:103AB0000000000000000000000000010200000102
:103AC000EC50B010000000F8020000000800870B66
:103AD00000000400000000000004000000000000DE
:103AE0000000000000000010005E850000004001A2
:103AF000771C6C0081000DEE00E00002C020000089
:103B000000000000000000000000000000000000B5
:103B100000000420080010010010C0274000000130
:103B2000C1C00C0000880000000001E0000000009F
:103B30000000000000000000000021815FEB9F00FA
:103B400000005A3E66380080000FCC00080000E0FC
:103B50000000000002000000000000000000000063
:103B60000000000208002931D0000005003CC2001E
:103B7000000010D6F0085C00000000000000078084
:103B8000000000000000000000000010000004170A
:103B9000C000080242303FBC0400010081F998A037
:103BA0000000800000000000400000000000000055
:103BB0000000000002000000025A0008000062003D
:103BC00073C38000000903971E00009400000000EA
:103BD00002000000000000000000000000001000D3
:103BE0000000000F8E5C88001096402000211A35DE
:103BF0004E0010018280100000003C000000000018
:103C00000000000000000000800000000018EA1121
:103C1000400005BD440005008702CB0E01540000A2
:103C20000000000000000000000000000000000094
:103C300000000000002DC58000000080FA06200072
:103C4000001BC0EE818000000000000000000000AA
:103C5000000000000000010000000008000083FFD9
:103C60007000C00040072E440700000002C9100089
:103C700000008000000000000000000000000000C4
:103C80001C000000000014290E9001001C0081D7C8
:103C9000F66500F00142EE800001C0000000000067
:103CA00000000000000000000000400000000000D4
:103CB00003F81B00800040001DB446484100201757
:103CC000F9000004000000000000000000000000F7
:103CD00000000000000000000000000000000001E3
:103CE00040B8338600000100054180140000000048
:103CF00000000000000000000000000001000000C3
:103D0000000000000000000001000B808240000461
:103D1000000080E109201000020000000000000007
:103D2000000000010000000000000000010407C8BE
:103D300000408002AFB6400032002141E800100090
:103D4000000800000000000000000000000000006B
:103D50000000000040000000D9F00A100937F327E6
:103D6000C00040000003890A0000000000000000BD
:103D70000000000000000000000000000000002023
:103D8000890EDB99000000103E0404000000416928
:103D9000801400000020000000000000400000002F
:103DA00000000100000000000008B2C8F9E00000B7
:103DB0000009BEE34010000026990D00000000003D
:103DC00000000000000000BC1600000080000000A1
:103DD0000020000407DD0F01004480360E3800018A
:103DE0000205FDB01000000000000000000000020D
:103DF0000BC0200000000000000005020001DF19D8
:103E0000D000000000ED600000002000EB0D01007C
:103E100000000000000000000000000000000000A2
:103E2000000000000020943DCF0000000050724EC2
:103E300000000100E1405000000000000000000010
:103E40000000400000000000010000000000000A27
:103E500002ECF09001000000F5E34000200D02D9D3
:103E60000900000000000000000000000000000049
:103E7000000008000000000002281FCF000008001A
:103E80000000003000200015DF38A0000000000016
:103E900000000000000000000000000140000000E1
:103EA000000003C03EF00001400000000380050058
:103EB0000002A09B401080380000000000000000BD
:103EC0000000000000000000000400000437A18E84
:103ED00004000020F3002C00080800CE001A0000A7
:103EE000840000000000000000000000000000004E
:103EF000000000000000015D71000000024968063A
:103F0000000000A106CF080000040400000000002B
:103F1000400700000000000000000000000010103A
:103F20001DD808009C0005337E280070000000505A
:103F3000E001C0024000000000200000000000007E
:103F40000000000000000008000018B1001440004C
:103F500000A7641001000000009000048000002011
:103F6000F70000000000000000200000000000003A
:103F70000000840C900C000240A477546000000AFA
:103F800010DE00000000E000030F08000000000049
:103F9000000000000000000000000869416D700092
:103FA000000000007020000000A06E800080000073
:103FB000020020F18000000000000000000000006E
:103FC00000000000048284C01C00004AA552460084
:103FD00042000141ED000000000000820F000000DF
:103FE00000000000000000000000000000022A168F
:103FF0006D50A000192A70B0000040003D419000B3
:10400000000004000020F00000000000000000009C
:10401000000000000005000004149F9F000000AF96
:10402000B20606850100B8D9B0B40002C000030F83
:104030000000000000000000000000000000000080
:10404000000002FD11E0000007F7BFC3900000036D
:10405000C0D18C200000000020F70000000000000C
:1040600000000000000000000000110F5DF800508B
:104070000040303BEC78020100004F81A0080000B6
:1040800000830F000000000000000000000000009E
:104090000000000000F02E100A00000200B84640A8
:1040A00050000403CF000140000000000000028027
:1040B0000000000000000000000000000000940C60
:1040C000D508000000407E4E700000000000701116
:1040D000000000000000003440000000000000006C
:1040E00000000000000002680029090000000A0D1D
:1040F000AC07C000000000000D80001400000000AC
:1041000000000003000000000000000000000000AC
:10411000000000000F6088065A00403100200000B7
:104120000000A000828000000000000000000000ED
:104130000000000000000000000000000001D4109A
:10414000403A503546A80100000000090004000074
:1041500000000001E68000000000000000000000F8
:10416000000000000000018000000018F25661000D
:10417000000294DB90080000000000000002000034
:104180000000000000000000000000080000000027
:1041900000000000050DB4002000000282E980004C
:1041A000001000002AF585C000070083CE00004003
:1041B0001C00000006100000000700001E02509FB7
:1041C000B400A0700141FA71A001C000000B5F03B0
:1041D000020000000C3C2000000000000000020073
:1041E00000000000000061A20BE740000100140184
:1041F000009000040000082AF3E00000000083D4CF
:10420000000000000000000000000000001A000094
:10421000005A5B0600000900B0DA701000000000D0
:1042200003AF04000000000C3C20900000000000E0
:10423000000000000000000000000A00EC08000080
:10424000000F42C7080000000200000000660000E6
:1042500000000000000000000000000000BC0C078F
:1042600080000252301F9600000002C1CC181000DE
:1042700000000000000000400000000000000000FE
:104280000000000030000FC00000D000082100F640
:10429000400200003C14E00800000000084007A4B1
:1042A000000000000000000000000000000200000C
:1042B000140E800100000000F61E0280080A9579A5
:1042C000500000000020800A02C000000000000032
:1042D000000000000000000000014010F0E00000BD
:1042E000004DEC0350000583C1D009000000000020
:1042F0000000000380000083DC08001000000000C4
:10430000000000A94DB998000002F01B6460000095
:10431000001B60800000000000000000000000089A
:104320000C3C20F00000000000000000483C3C185D
:10433000000038A500B9600000000256DF09000047
:104340001800006AF3A000000000000003800000D5
:10435000000000000020A95FB000000000503A20DB
:10436000000001007C6901A00000000003AF040010
:1043700000000000000008000000000000000048ED
:104380003C0D0000000900002E402000002BC1C0A1
:1043900009180000000020F781C040030000000061
:1043A00000000C000000000000002EB00100090019
:1043B000A53ACE00052108F44A01A140800000037F
:1043C0000F0802340000000000000004000000009C
:1043D000000040226D00B000400550F0238001C471
:1043E0008FC3B0000104006800000000000200005C
:1043F000C3C4E0000000000000000000291C982E4B
:10440000000000000006000000000000181110006D
:1044100000200000000000000103C00000000000B8
:10442000000000000012954811000000000000028A
:104430008000000000008D002000000065B57C08B1
:10444000402700C3C4E020001C0000000000011051
:104450001DD00B001C04003B802800700140D85187
:104460009001C000000A5A328020050003C00000FD
:1044700000004000000000000213EC008800000073
:10448000A0654280412014000F18000420000001A4
:104490008BE803800000C3C4A9800008000000006E
:1044A00000001417850A0000400C300028000102AB
:1044B0000C781981080300000810178040050003DC
:1044C000C01010000000000000000020002B0100C0
:1044D000002100C08002C0008030C1A09000000018
:1044E000020000000200000000C3C4A99800000000
:1044F0000000002000141DD000400082F03800664B
:1045000080000801E8D000000000000000002C2C12
:10451000000003C010100000000000007000000048
:104520002C500000003F0000069000008142C700B0
:10453000000000000020F70002800000C3C5E0007A
:104540000000000000000010908CF00E000004F04D
:104550005A440000040A95FA01A000000020020F4E
:10456000080000000003C000000000000000000080
:104570000000141D0100000800007020000060838E
:10458000C1F00A000000000820F70006000000C388
:10459000C5A00000000000000000000000000E00A8
:1045A0000000051AC604000001015B000000008045
:1045B00000030F080000000003C0000000C000005E
:1045C0000000000000000090F0400001A52802401B
:1045D0000000149FE0000000000000000002C60080
:1045E0000000C3C5A019000000000000000008176B
:1045F0008F180001401A1F0C00000100B0787001F4
:10460000000803000000000C00000003C010008040
:10461000000000000000000001EB79C0000000A0D5
:1046200060000000000F01B08A000054000000008C
:104630000007805300AA85A00100000000000000D0
:10464000111284F800000000021EC000002500685E
:104650006A1810008200000000000000020022A87A
:1046600010008000000000000000022C2F30000429
:10467000000049A8000001000742908800040000E3
:104680001103010100000000000000000000000014
:1046900000000000000000000000000000040040D6
:1046A00000000000100100000000000000000000F9
:1046B00000000000000000000000000000000000FA
:1046C000000000000000024000000000000900009F
:1046D00000000000000000000000000000000000DA
:1046E00000000000000000000000000000000000CA
:1046F0000000800000000000020000000000000038
:1047000000000000000000000000000000000000A9
:104710000000000000000000000000000000000099
:104720000000000000000000000000000000000089
:104730000000000000000000000000000000000079
:104740000030000000400000C00000010000000038
:104750000000000000000000000000000000000059
:104760000000000000000000000003000000000046
:10477000000C00000000000000000000000000002D
:104780000000080000000000002000000000000001
:104790000000000000000000000000000000000019
:1047A0000000000000000000000000000000000009
:1047B00000000000000000000000000000000000F9
:1047C00000000000000000000000000000000000E9
:1047D00000000000000800000000000020000000B1
:1047E000000C00000000001830000000000000C0B5
:1047F00000000000000300000000000000000000B6
:1048000000000000000000000000000000000000A8
:104810000000000000000000000000000000000098
:104820000000000000000000000000000000000088
:104830000000000000000000000000000000000078
:104840000030000000000000000000000000000038
:104850000000000000000000000000000000000058
:104860000000000000000000000000000000200028
:1048700000C0000000000000000000000000000078
:104880000000000000000000000020000000020006
:104890000080000000018000000000000600000011
:1048A0000000000000000000000000000000000008
:1048B00000000002000000000000080000000010DE
:1048C0000020000000024000800000000000000006
:1048D000000000000000000000000C0000000000CC
:1048E0000000000000000000800002000000000046
:1048F00000000000000001000000000000000000B7
:10490000000000000800000000000000000000009F
:104910000000000010000000000000000000000087
:104920000000000000000000000000000000000087
:104930000000000000000000000000000000000077
:104940000000000000000000000000000000000067
:104950000000000000000000000000000000000057
:104960000000000000000000000000000000000047
:104970000000000000000000000000000000000037
:1049800000000000000140D00A0000000500022CD9
:104990000000000000000000000000000000000017
:1049A00000000000000000000000000000000028DF
:1049B000E100000000005771E0000000000000006E
:1049C00000000000000000000000000000000000E7
:1049D00000000000000000000000091000000000BE
:1049E00000000000000000000000000000000000C7
:1049F00000000000000000000000000000000000B7
:104A00000000000000E000000000000200000000C4
:104A10000000000000000200000000000000000094
:104A200000000000000000000000202BC0D00000AB
:104A30000000000000000000000000000000000076
:104A40000000000000000000000000000000000066
:104A50000000000000156F000000000000000000D2
:104A60000000000000000000000000000000000046
:104A70000000000000000000000000000000000036
:104A8000000B000000050B0000000003C000000048
:104A900000000020000000000000000000000000F6
:104AA000000000000000000000000000000000A75F
:104AB00004000000003C1600080000000000000098
:104AC00000000000000000000000000000000000E6
:104AD00000000000000000000000000000000000D6
:104AE00000000000000000000000000000000000C6
:104AF00000000000000000000000000000000000B6
:104B00000000000000000000000000004000000065
:104B10000000000000000000000000000000000095
:104B20000000000000000000000000000000000085
:104B30000000000000000000000000000000000075
:104B40000000000000000000000000000000000065
:104B50000000000000000000000000000000000055
:104B60000000000000000000000000000000000045
:104B70000000000000000000000000000000000035
:104B80000000000000000000000000000000000025
:104B90000000000000000000000000000000000015
:104BA0000000000000000000000000000000000005
:104BB00000000000000000000000000000000000F5
:104BC00000000000000000000000000000000000E5
:104BD00000000000000000000000000000000000D5
:104BE00000000000000000000000000000000000C5
:104BF00000000000000000000000000000000000B5
:104C000000000000000000000000000000000000A4
:104C10000000000000000000000000000000000094
:104C20000000000000000000000000000000000084
:104C30000000000000000000000000000000000074
:104C40000000000000000000000000000000000064
:104C50000000000000000000000000000000000054
:104C60000000000000000000000000000000000044
:104C70000000000000000000000000000000000034
:104C80000000000000000000000000000000000024
:104C90000000000000000000000000000000000014
:104CA0000000000000000000000000000000020002
:104CB00000000000000000000000000000000000F4
:104CC00000000000000000000000000000000000E4
:104CD00000000000000000000000000000000000D4
:104CE00000000000000000000002000000000000C2
:104CF00000000000000000000000000000000000B4
:104D000000000000000000000000000000000000A3
:104D10000000000000000000000000000000000093
:104D20000000000000000000000000200000000063
:104D3000000000000000000000000000000500006E
:104D40000000000000000000000000000000000063
:104D50000000000000000000000000000000000053
:104D60000000000000000000000000000000000043
:104D70000000000000000000000000000000000033
:104D80000000000000000000000000000000000023
:104D90000000000000000000000000000000000013
:104DA0000000000000000000000000000000000003
:104DB00000000000000000000000100000000000E3
:104DC00000000000000000000000000000000000E3
:104DD00000000000000000000000000000000000D3
:104DE00000000000000000000000000000000000C3
:104DF00000000000000000000000000000000000B3
:104E00000000000000000000000000000080000022
:104E10000000000000000000000000000000000092
:104E20000000000000000000000000000000000082
:104E30000000000000000000000000000000000072
:104E40000000000000000000000000000000000062
:104E50000000000000000000000000000000000052
:104E60000000000000000000000000000000000042
:104E70000000000000000000000000000000000032
:104E80000000000000000000000000000000000022
:104E90000000000000000000000000000000000012
:104EA0000000000000000000000000000000000002
:104EB00000000000000000000000000000000000F2
:104EC00000000000000000000000000000000000E2
:104ED00000000000000000000000000000000000D2
:104EE00000000000000000000000000000000000C2
:104EF00000000000000000000000000000000000B2
:104F000000000000000000000000000000000000A1
:104F10000000000000000000000000000000000091
:104F20000000000000000000000000000000000081
:104F30000000000000000000000000000000000071
:104F4000000000000000020000000000000000005F
:104F50000000000000000008100000000000000039
:104F60000000000000000000000000000000000041
:104F70000000000000000000000000000000000031
:104F800000008000000000000000000000000000A1
:104F90000000000000000000000000000000000011
:104FA0000000000000000000000000000000000001
:104FB00000000000000000000000000000000000F1
:104FC00000000020000000000000000000000000C1
:104FD00000000000000000000000000000000000D1
:104FE00000000000000000000000000000000000C1
:104FF00000000000000000000000000000000000B1
:1050000000000000000000000000000000000000A0
:105010000000000000000000000000000000000090
:105020000000000000000000000000000000000080
:105030000000000000000000000000000000000070
:105040000000000000000000000000000000000060
:105050000000000000000000000000000000000050
:105060000000000000000000000000000000000040
:105070000000000000000000000000000000000030
:105080000000000000000000000000000000000020
:105090000000000000000000000000000000000010
:1050A0000000000000000000000000000000000000
:1050B00000000000000000000000000000000000F0
:1050C00000000000000000000000000000000000E0
:1050D00000000000000000000000000000000000D0
:1050E00000000000000000000000000000000000C0
:1050F00000000000000000000000000000100000A0
:10510000000000000000000000000000000000009F
:1051100000000000000000000000000100C00000CE
:1051200000000000000000E000000000000000009F
:105130000000000000000006000000000000000069
:10514000000000000000100000000000000000004F
:105150000800000000000000000000000000000047
:10516000000000000000000000000000000000003F
:10517000000000000000000000000000000000002F
:10518000000000000000000000000000000000001F
:105190000000000094B4C000000000000000000007
:1051A00000000000010000000000000000000000FE
:1051B000000000000000000000000000000A264B74
:1051C000018000000000000000000000000000005E
:1051D00000000000000000000000000000000200CD
:1051E0000000000000000003C000000150000000AB
:1051F0000000000000000D000000000000000000A2
:10520000000000000000000000000000000000009E
:10521000043C5800000000000000000000000000F6
:10522000000000000000000000000000000000007E
:105230000000000000000000000003C005000000A6
:10524000000000000000000000000000000000005E
:10525000000000000000000000000020000000002E
:10526000000000043C585004000000000000000052
:10527000000000000000000000000000000000002E
:105280000000000000000000000000000003C10555
:10529000000000000000000000000000000000000E
:1052A00000000000000000000000000000000000FE
:1052B000000000000000043C4800A00000000000C6
:1052C00000000000000000000000000000000000DE
:1052D00000000000000000000000000000000000CE
:1052E00003C1000A000000000000000000000000F0
:1052F000008000000000000000000000000000002E
:10530000000000000000000000043C5A00A001C0A2
:105310000000000000000000000014000000000079
:10532000000000000000000000000000000000007D
:105330000208100001000000000000000080003D95
:10534000CDE0800000000000000000000000000030
:1053500000000000000000000000000004000A50EF
:10536000000000000000000023C5C910000000007C
:105370000000000000000000000000000000002A03
:1053800000640200000084C28000001000000000E1
:1053900000000000000000000000000020004203A8
:1053A0007E4F000001000000020A16800400310850
:1053B0002D6E018000C00000000000000000000011
:1053C0000000000000064003003BD6001A000C005D
:1053D00000002A006C000004000000A10000100082
:1053E0000000000000000000000010000000002885
:1053F000004201403A10A001000000030A16866036
:10540000000001415D9980000000000000000000E4
:10541000000000000000000006400000001C9D810C
:1054200000000000002A002400000000880CB000EA
:10543000000000000000000000000000800002A04A
:1054400003820000000ACA4F00A000000000030A07
:1054500016800000000AB47F01C0000000000000B8
:10546000000000000000000020A179C000000098AA
:1054700056C01B00000000002A002C000004008D14
:105480005EB00000100000000000000000000000FE
:105490001002A003002800400000CD50E0010000F1
:1054A00000030A178000000008157A018000000040
:1054B000000000000000000000000030A178004063
:1054C0000000043CC81B00000080002A00644280E9
:1054D000000098A5B10800000000000000000000D6
:1054E0000000000002A007800000000A264F000014
:1054F00000000000030A13A66000000B05C9989085
:10550000000000000000000000000000000030A1CA
:1055100028002200009196001800000000002F00D3
:1055200040420000008543A09800100000000000E9
:105530000000000000000002F004042000400940C8
:105540003A000000080000030F12B40400010835FF
:10555000DA50900000000000000000000000000091
:105560000030F12A66C00000AA9C90000000800074
:10557000002F00000280000036C0C01B00000000A9
:105580000000000000000000000002F00000000029
:105590000003F01C008000000800030F13800000CF
:1055A00071039C0100A001C0000000000000000089
:1055B00001A0000030F138000007111606F00100CC
:1055C0001C0000002F010000000040003CED100016
:1055D0000000000000000001420000000002F0583E
:1055E000000000000081FF000000040000030FDA4B
:1055F0009400000000047B18A0008000000000025E
:105600004014585800000030F3A800000000063C89
:10561000818000082800000F00200000000000002A
:1056200000000004000000000004A80001000000C9
:1056300000000000000000483C200000000940007D
:10564000407A5E4000000000000000000080000082
:105650000000020A816E800000C00000000000030C
:105660000083CE0000000C00000000006C00080069
:1056700000000000200080000000002000F434D072
:1056800000000000000004200400000000000000F2
:10569000000000005A028001000000000000A00489
:1056A0000000000060000A815B0080000000000232
:1056B000064020000000071800000B7C000500A831
:1056C0004000000000000F0F000000000007000075
:1056D00000000100000000000000000000083C2065
:1056E00070000008870002003360600000000000C6
:1056F000001000000000000000000000800000001A
:105700000000000000000183D4099800002C020072
:1057100003C029C3C000000000008A000000000090
:10572000000000C3C201004140000000000007006B
:10573000000000008000004000403832A0600000FF
:10574000000000780000000000000006083DE08135
:105750008A08000000000000700000000001000046
:105760000000800A00B0038000000000000000007C
:1057700000000000000083C20008000000000002DA
:10578000000100483C0000000000003040015AC603
:105790006000000000001000000000000020000871
:1057A0003CC001E000000000006000200083DC003D
:1057B0000000000F0000080DE7620000000142B782
:1057C000080020000000002000BD42D008000002B8
:1057D000A006C2000030083C00000000C862800043
:1057E0000056546C0008102941001002000000000F
:1057F00005000A95EC1800000060A13C6000020161
:1058000083CE0180000C003C000000A766C01000A1
:10581000140000000004000000000000A800000DBB
:10582000000202A00242000000083C00000000004C
:105830000000000A3E542800700140CE000001C064
:1058400000000000000A8068001001C030A13C6028
:1058500000070183CC0000001C0000000209254065
:10586000000820928ED00000000000002090000070
:1058700000000E000222A002C0000000483C2000F0
:105880000000080000001018400000000882CB0053
:1058900000000000000002000000000000000030D6
:1058A000A13C0000000083CE000000000000083A88
:1058B000F0400000000000000000000000000000B8
:1058C00008203C00000EA00202A0074020000000BB
:1058D000000000000000000002AF3F947040300064
:1058E000000000010080000000000003C1C001D4DE
:1058F00000C030A17C604003000000001A080000D6
:1059000000000000000000000000000080400000D7
:1059100000000050009083802C000002A006400090
:1059200000001300205000040000000000000000F0
:105930000000000000580A000000000000010809F3
:105940005A0190000030A16D66000010300C00007C
:10595000000000000030F083CA00000000000009D1
:1059600000000000000000001402B08F000202A03E
:10597000034000000000880F00A000000000020F9C
:10598000380004000000000000008000000000005B
:105990000003C17E7010000030A16D600000100097
:1059A0000FE0010010000001201920020000008318
:1059B000C00008C000000000105000968C87000056
:1059C0000002A0024000000003E8180004000000EC
:1059D00000020036407C0000083CC0019E00000030
:1059E00000030200680BCD81E0000030A17C0000C4
:1059F00000101F94A580A00000000000000000001F
:105A0000000083C0000840000000001000003FC3F9
:105A1000D18AA00202A00744000000000869010228
:105A20000000000000000000000000183CC000184A
:105A30000000000002800101FD6DF9F4080030A1B2
:105A40002E060000000015B00A180000000025A076
:105A5000380000000000000000000000000000000E
:105A60000000009500000202A006443C003000281F
:105A700009D8800000000002000240000000000081
:105A800000000000000000000001010169000000AA
:105A900000B0A12E6040031191D4850100000000E8
:105AA0000020A0240747000097C1801000040000D8
:105AB0000000000002800508000002A0036400004E
:105AC00000000C6909000001800012053000780018
:105AD000700814EF01E141C00000000000002868D8
